{
  "_format": "hh-sol-artifact-1",
  "contractName": "CredentialVerifier",
  "sourceName": "contracts/CredentialVerifier.sol",
  "abi": [
    {
      "anonymous": false,
      "inputs": [
        {
          "indexed": false,
          "internalType": "string",
          "name": "documentHash",
          "type": "string"
        },
        {
          "indexed": false,
          "internalType": "string",
          "name": "ipfsCID",
          "type": "string"
        },
        {
          "indexed": false,
          "internalType": "uint256",
          "name": "timestamp",
          "type": "uint256"
        }
      ],
      "name": "DocumentVerified",
      "type": "event"
    },
    {
      "inputs": [
        {
          "internalType": "address",
          "name": "_student",
          "type": "address"
        }
      ],
      "name": "getCertificates",
      "outputs": [
        {
          "components": [
            {
              "internalType": "string",
              "name": "documentHash",
              "type": "string"
            },
            {
              "internalType": "string",
              "name": "ipfsCID",
              "type": "string"
            },
            {
              "internalType": "uint256",
              "name": "timestamp",
              "type": "uint256"
            }
          ],
          "internalType": "struct CredentialVerifier.Credential[]",
          "name": "",
          "type": "tuple[]"
        }
      ],
      "stateMutability": "view",
      "type": "function"
    },
    {
      "inputs": [
        {
          "internalType": "string",
          "name": "_hash",
          "type": "string"
        },
        {
          "internalType": "string",
          "name": "_ipfsCID",
          "type": "string"
        },
        {
          "internalType": "address",
          "name": "_student",
          "type": "address"
        }
      ],
      "name": "issueCredential",
      "outputs": [],
      "stateMutability": "nonpayable",
      "type": "function"
    },
    {
      "inputs": [
        {
          "internalType": "string",
          "name": "_hash",
          "type": "string"
        }
      ],
      "name": "verifyCredential",
      "outputs": [
        {
          "internalType": "bool",
          "name": "",
          "type": "bool"
        }
      ],
      "stateMutability": "view",
      "type": "function"
    }
  ],
  "bytecode": "0x6080604052348015600f57600080fd5b50610cc18061001f6000396000f3fe608060405234801561001057600080fd5b50600436106100415760003560e01c8063bb3670ab14610046578063bcde977814610076578063f1c49c6214610092575b600080fd5b610060600480360381019061005b9190610554565b6100c2565b60405161006d91906105b8565b60405180910390f35b610090600480360381019061008b9190610631565b6100f6565b005b6100ac60048036038101906100a791906106bc565b61022e565b6040516100b9919061089a565b60405180910390f35b600080826040516100d391906108f8565b908152602001604051809103902060009054906101000a900460ff169050919050565b600160008460405161010891906108f8565b908152602001604051809103902060006101000a81548160ff02191690831515021790555060006040518060600160405280858152602001848152602001428152509050600160008373ffffffffffffffffffffffffffffffffffffffff1673ffffffffffffffffffffffffffffffffffffffff16815260200190815260200160002081908060018154018082558091505060019003906000526020600020906003020160009091909190915060008201518160000190816101ca9190610b1b565b5060208201518160010190816101e09190610b1b565b506040820151816002015550507f91f692fc0bb0ea23a28a4052fae175070b321f4e96786c4880e89d2042a4753984844260405161022093929190610c46565b60405180910390a150505050565b6060600160008373ffffffffffffffffffffffffffffffffffffffff1673ffffffffffffffffffffffffffffffffffffffff168152602001908152602001600020805480602002602001604051908101604052809291908181526020016000905b828210156103ef57838290600052602060002090600302016040518060600160405290816000820180546102c29061093e565b80601f01602080910402602001604051908101604052809291908181526020018280546102ee9061093e565b801561033b5780601f106103105761010080835404028352916020019161033b565b820191906000526020600020905b81548152906001019060200180831161031e57829003601f168201915b505050505081526020016001820180546103549061093e565b80601f01602080910402602001604051908101604052809291908181526020018280546103809061093e565b80156103cd5780601f106103a2576101008083540402835291602001916103cd565b820191906000526020600020905b8154815290600101906020018083116103b057829003601f168201915b505050505081526020016002820154815250508152602001906001019061028f565b505050509050919050565b6000604051905090565b600080fd5b600080fd5b600080fd5b600080fd5b6000601f19601f8301169050919050565b7f4e487b7100000000000000000000000000000000000000000000000000000000600052604160045260246000fd5b61046182610418565b810181811067ffffffffffffffff821117156104805761047f610429565b5b80604052505050565b60006104936103fa565b905061049f8282610458565b919050565b600067ffffffffffffffff8211156104bf576104be610429565b5b6104c882610418565b9050602081019050919050565b82818337600083830152505050565b60006104f76104f2846104a4565b610489565b90508281526020810184848401111561051357610512610413565b5b61051e8482856104d5565b509392505050565b600082601f83011261053b5761053a61040e565b5b813561054b8482602086016104e4565b91505092915050565b60006020828403121561056a57610569610404565b5b600082013567ffffffffffffffff81111561058857610587610409565b5b61059484828501610526565b91505092915050565b60008115159050919050565b6105b28161059d565b82525050565b60006020820190506105cd60008301846105a9565b92915050565b600073ffffffffffffffffffffffffffffffffffffffff82169050919050565b60006105fe826105d3565b9050919050565b61060e816105f3565b811461061957600080fd5b50565b60008135905061062b81610605565b92915050565b60008060006060848603121561064a57610649610404565b5b600084013567ffffffffffffffff81111561066857610667610409565b5b61067486828701610526565b935050602084013567ffffffffffffffff81111561069557610694610409565b5b6106a186828701610526565b92505060406106b28682870161061c565b9150509250925092565b6000602082840312156106d2576106d1610404565b5b60006106e08482850161061c565b91505092915050565b600081519050919050565b600082825260208201905092915050565b6000819050602082019050919050565b600081519050919050565b600082825260208201905092915050565b60005b8381101561074f578082015181840152602081019050610734565b60008484015250505050565b600061076682610715565b6107708185610720565b9350610780818560208601610731565b61078981610418565b840191505092915050565b6000819050919050565b6107a781610794565b82525050565b600060608301600083015184820360008601526107ca828261075b565b915050602083015184820360208601526107e4828261075b565b91505060408301516107f9604086018261079e565b508091505092915050565b600061081083836107ad565b905092915050565b6000602082019050919050565b6000610830826106e9565b61083a81856106f4565b93508360208202850161084c85610705565b8060005b8581101561088857848403895281516108698582610804565b945061087483610818565b925060208a01995050600181019050610850565b50829750879550505050505092915050565b600060208201905081810360008301526108b48184610825565b905092915050565b600081905092915050565b60006108d282610715565b6108dc81856108bc565b93506108ec818560208601610731565b80840191505092915050565b600061090482846108c7565b915081905092915050565b7f4e487b7100000000000000000000000000000000000000000000000000000000600052602260045260246000fd5b6000600282049050600182168061095657607f821691505b6020821081036109695761096861090f565b5b50919050565b60008190508160005260206000209050919050565b60006020601f8301049050919050565b600082821b905092915050565b6000600883026109d17fffffffffffffffffffffffffffffffffffffffffffffffffffffffffffffffff82610994565b6109db8683610994565b95508019841693508086168417925050509392505050565b6000819050919050565b6000610a18610a13610a0e84610794565b6109f3565b610794565b9050919050565b6000819050919050565b610a32836109fd565b610a46610a3e82610a1f565b8484546109a1565b825550505050565b600090565b610a5b610a4e565b610a66818484610a29565b505050565b5b81811015610a8a57610a7f600082610a53565b600181019050610a6c565b5050565b601f821115610acf57610aa08161096f565b610aa984610984565b81016020851015610ab8578190505b610acc610ac485610984565b830182610a6b565b50505b505050565b600082821c905092915050565b6000610af260001984600802610ad4565b1980831691505092915050565b6000610b0b8383610ae1565b9150826002028217905092915050565b610b2482610715565b67ffffffffffffffff811115610b3d57610b3c610429565b5b610b47825461093e565b610b52828285610a8e565b600060209050601f831160018114610b855760008415610b73578287015190505b610b7d8582610aff565b865550610be5565b601f198416610b938661096f565b60005b82811015610bbb57848901518255600182019150602085019450602081019050610b96565b86831015610bd85784890151610bd4601f891682610ae1565b8355505b6001600288020188555050505b505050505050565b600082825260208201905092915050565b6000610c0982610715565b610c138185610bed565b9350610c23818560208601610731565b610c2c81610418565b840191505092915050565b610c4081610794565b82525050565b60006060820190508181036000830152610c608186610bfe565b90508181036020830152610c748185610bfe565b9050610c836040830184610c37565b94935050505056fea264697066735822122048c68a9638d25b3cc101c1f4393a58f1635d3ad92d5e5c93b6e4e98e6fc15a8664736f6c634300081c0033",
  "linkReferences": {},
  "deployedLinkReferences": {}
}